:020000040000FA
:060000000A128A110C280F
:10000800FE00030EF4000A08F5000A128A11752C86
:100018000A128A110F280A128A1183250A128A11D4
:10002800E5000A128A1184250A128A11E600DF0106
:10003800E001E101E201E301E401F601F701F80161
:10004800F90183010A128A1129280A128A116425E2
:100058000A128A110A128A117C250A128A11803022
:1000680083120313A0002530A1000A128A1151251A
:100078000A128A118316031301170B16F130860032
:10008800831203138601C03083160313870083127B
:1000980003138617831603138717871B54285828BA
:1000A8008316031307175B288316031307138801A6
:1000B800051485140A128A11E6210A128A1183127C
:1000C80003138712A40101300A128A114A220A1264
:1000D8008A110E3083120313A6008030A7000A127B
:1000E8008A1112240A128A110A128A117D210A120F
:1000F8008A1183120313061F82288328DC28DD0156
:10010800DE01831203135D08513E840083138001CE
:100118000A128A1173250A128A1183120313D00056
:100128005D08513E84005008831380000130DD07CC
:100138000318DE0A0030DE075E08803AFF008030D0
:100148007F02031DA9280C305D02031CAC28AD28D2
:100158008528831203135F086004031DB428B5289B
:10016800C42861086204031DBA28BB28C4280A12DF
:100178008A11DF230A128A1183120313E301E401AF
:1001880000306402153003196302031CCC28CD2803
:10019800DC28861AD028D128DC280A128A1144249F
:1001A8000A128A11013083120313E1000030E200C1
:1001B800861EDF28E0287828061BE328E42878280C
:1001C8005F036004031DE928EA28F8280A128A1147
:1001D80044240A128A11013083120313E502003005
:1001E800031CE603E602782878280A128A110C28EC
:1001F800831203132B08B0002A08AF002D08A100B2
:100208002C08A0003008A3002F08A2000A128A11A7
:10021800A4220A128A11831203132108B0002008AD
:10022800AF000130A8070318A90A0030A9072F0852
:100238003004031D20292129022928088400831756
:10024800291C831380010130A8020030031CA90374
:10025800A9022D08A1002C08A0002B08A3002A0839
:10026800A2000A128A116C230A128A11831203133C
:100278002008AE002E08B1002D08A1002C08A0000F
:100288002B08A3002A08A2000A128A11A4220A1223
:100298008A11831203132108AB002008AA000A3030
:1002A8003102031C582959295D290730AE002E0850
:1002B800B1073030AE002E08B1073108AE0028086B
:1002C80084008317291C83132E0880000130A8029C
:1002D8000030031CA903A9022A082B04031D752951
:1002E80076292D290130A8070318A90A0030A90783
:1002F800080083120313A40102300A128A114A2249
:100308000A128A11831203135F036004031D8D29E7
:100318008E2998292030A6008030A7000A128A1159
:1003280012240A128A11A1292730A6008030A700BA
:100338000A128A1112240A128A1183120313610302
:100348006204031DA829A929BB29A40102300A12A5
:100358008A114A220A128A11183083120313A6003E
:100368008030A7000A128A1112240A128A118312F5
:1003780003136508B2006608B3003C30B4000030CF
:10038800B5000A30B6000030B7000A128A11D52429
:100398000A128A110A3083120313BB003B08A40017
:1003A80002300A128A114A220A128A11831203138E
:1003B8006508A6006608A7000A128A1112240A1204
:1003C8008A11080000300A128A1101250A128A11BE
:1003D800683083120313A500E330A400A40BF229AC
:1003E800A50BF229F72903300A128A1121250A12CE
:1003F8008A111A3083120313A500F730A400A40B46
:10040800032AA50B032A082A03300A128A11212578
:100418000A128A113A3083120313A5002230A4006D
:10042800A40B142AA50B142A000003300A128A11FF
:1004380021250A128A1102300A128A1121250A126C
:100448008A1102300A128A1121250A128A110830EB
:100458000A128A1121250A128A1100300A128A11F9
:1004680021250A128A110C300A128A1121250A1232
:100478008A1100300A128A1121250A128A110630BF
:100488000A128A1121250A128A11080083120313FD
:10049800A7002703031D512A522A782A2408803EE0
:1004A800A5002508A8002808A50004300310A50CFD
:1004B800FF3E031D5A2A2508A6002608A90024087D
:1004C800803E0F39A5002508AA0029080A128A11BA
:1004D80021250A128A11831203132A080A128A1183
:1004E80021250A128A11A32A02302706031D7D2A14
:1004F8007E2AA32A2408C03EA5002508A8002808AB
:10050800A50004300310A50CFF3E031D862A25080C
:10051800A6002608A9002408C03E0F39A500250812
:10052800AA0029080A128A1121250A128A1183129F
:1005380003132A080A128A1121250A128A110800AF
:1005480083120313A601A701200821040319AD2A69
:10055800AE2AE52AA501A50ABC2A01300310A00D80
:10056800A10DFF3E031DB22A0130A4002408A507EF
:10057800A11FBF2AC02AB12A01300310A60DA70D5A
:10058800FF3E031DC12A21082302031DCD2A20088E
:100598002202031CD02AD12AD82A2008A202210824
:1005A800031CA303A302261401300310A10CA00C02
:1005B800FF3E031DD92A0130A502031DE42AE52ABE
:1005C800C02A2708A1002608A000080083120313E8
:1005D800A50025080F39A1002108A3002508F03936
:1005E800A1002108A40007142408A1000430031066
:1005F800A10CFF3E031DFB2A21080A128A110125BE
:100608000A128A118312031307151A30831203136F
:10061800A200F730A100A10B0F2BA20B0F2B142B5C
:1006280083120313071123080A128A1101250A12DB
:100638008A118312031307151A3083120313A200B9
:10064800F730A100A10B262BA20B262B2B2B8312F4
:10065800031307110800FF1B392B83137F18831717
:100668000008840A0319FF0A080003308A000408F6
:10067800840A82070034313431343134313431342E
:10068800313431343134313431343134313400346B
:10069800573465346C346C3463346F346D3465347A
:1006A800213400344C346F3463346B3421342134B6
:1006B800213400344F34703465346E346534643416
:1006C800003443346C346F34733465346434003428
:1006D80083120313200821040319732B742BA32BF3
:1006E800A501A50A822B01300310A00DA10DFF3E24
:1006F800031D782B0130A4002408A507A11F852B12
:10070800862B772B21082302031D8C2B200822021D
:10071800031C8F2B902B962B2008A2022108031C68
:10072800A303A30201300310A10CA00CFF3E031D7C
:10073800972B0130A502031DA22BA32B862B230880
:10074800A1002208A000080083120313A200831648
:1007580003178C18B02BB12BAB2B83120313220871
:10076800831203178D0083120313200883120317C3
:100778008C003F3083120313A1002108831603174E
:100788008C058312031303108B1FCB2BCC2BCD2B83
:1007980003148B13831603170C1555308D00AA30DC
:1007A8008D008C140C1183120313031CDC2BDD2B1E
:1007B800DE2B8B17080083120313A201A3018614F2
:1007C8000B3083120313A1001F30A000A00BEA2BEB
:1007D800A10BEA2B8312031386105E3083120313D6
:1007E800A100C230A000A00BF72BA10BF72B000033
:1007F800013083120313A2070318A30A0030A307CA
:1008080000302302323003192202031C0C2C0D2C59
:10081800E32B0130DF000030E000080083120313EF
:10082800A801A901312C28082607840029080318E3
:10083800290A2707FF000A128A112F230A128A1190
:100848000A128A11EA220A128A110130831203134A
:10085800A8070318A90A0030A90728082607840052
:1008680029080318290A2707FF000A128A112F23CB
:100878000A128A11003A031D422C432C172C080037
:1008880083120313A201A3018614053083120313F4
:10089800A100AB30A000A00B4F2CA10B4F2C831252
:1008A80003138610643083120313A1003630A000AE
:1008B800A00B5C2CA10B5C2C0000013083120313ED
:1008C800A2070318A30A0030A3070030230232301E
:1008D80003192202031C712C722C482CDF01E00141
:1008E80008008B1C782C792C832C0A128A11A624D8
:1008F8000A128A1183120313E101E2018B10831299
:1009080003130C1C882C892C9F2C0130F807031822
:10091800F90A0030F9074B3078067904031D952C45
:10092800962C9E2C0130E3070318E40A0030E407F4
:10093800F801F9010C1075088A00740E8300FE0E88
:100948007E0E0900F201F3018312031386140B30A3
:10095800F1001F30F000F00BAF2CF10BAF2CB42CD2
:100968008312031386105E30F100C330F000F00BE1
:10097800BB2CF10BBB2C0130F2070318F30A003033
:10098800F30700307302323003197202031CCD2CB6
:10099800CE2CA82C013083120313DF000030E000B6
:1009A800080083120313B51FDA2CDB2CEF2C2D3033
:1009B800B800320884008317331C8313380880007A
:1009C8000130B2070318B30A0030B307B409B509F8
:1009D800B40A0319B50A3208A8003308A900350873
:1009E800AB003408AA003708AD003608AC000A127C
:1009F8008A11FC200A128A11080083120313A0002E
:100A0800201C072D082D0A2D08160B2D0812A01CD6
:100A18000E2D0F2D112D8816122D8812201D152D23
:100A2800162D182D0817192D0813A01D1C2D1D2D66
:100A38001F2D8817202D8813080083120313A30085
:100A4800071023080A128A1101250A128A11831233
:100A580003130715153083120313A200C530A10034
:100A6800A10B342DA20B342D392D8312031307113A
:100A7800080083120313A4002408A3002308A0007D
:100A880076080A128A11A8230A128A110130F60779
:100A98000318F70A0030F707080083160313181520
:100AA8001930990018128312031398178316031329
:100AB800071787178C160B178312031318160800CD
:100AC800831603130C14831203130C100B178B17C4
:100AD8008E018F01901410129012101408008312C6
:100AE80003138C1E782D792D732D8C121A0808008B
:100AF80001300A128A113D250A128A11080064344D
:020B08000034B7
:02400E00723FFF
:00000001FF
