:020000040000FA
:100000000A128A11F02F00308A000408840A82073D
:1000100000343C343C34533448344F345734203467
:1000200055345234203443344134523444343E3411
:100030003E340034313431343134313431343134BC
:100040003134313431343134313431340034533497
:10005000743461347434753473343A342034003475
:100060004F34703465346E34653464340034433452
:100070006C346F34733465346434003468346A34F7
:0600800068346A3400340C
:100CB200831203138C1E5E2E5F2E592E8C121A087D
:100CC2000800831603130C14831203130C100B1762
:100CD2008B178E018F0190101012901210140800C1
:100CE2002030831603139800903083120313980068
:100CF2001130831603139900831203138C120C1202
:100D02000800F30083120313071073080A128A11F2
:100D1200F7260A128A118312031307151A30F200FA
:100D2200F830F100F10B932EF20B932E0000831298
:100D3200031307110800F300831203130714730847
:100D42000A128A11F7260A128A118312031307154F
:100D52001530F200C630F100F10BAD2EF20BAD2EC4
:100D620000008312031307110800F5007503031D29
:100D7200BB2EBC2EC42E7408803E0A128A11822613
:100D82000A128A11D12E02307506031DC92ECA2EEF
:100D9200D12E7408C03E0A128A1182260A128A11C2
:100DA2000800F600F401F501E92E740876078400C4
:100DB2000A128A1103200A128A110A128A119C2627
:100DC2000A128A110130F4070318F50A0030F507F8
:100DD2007408760784000A128A1103200A128A1103
:100DE200003A031DF52EF62ED62E0800F000701CD8
:100DF200FB2EFC2E002F831203130814032F8312E1
:100E020003130810F01C062F072F092F88140A2F2E
:100E12008810701D0D2F0E2F102F0815112F08117D
:100E2200F01D142F152F172F8815182F8811701EDB
:100E32001B2F1C2F1E2F08161F2F0812F01E222FE9
:100E4200232F252F8816262F8812701F292F2A2F2D
:100E52002C2F08172D2F0813F01F302F312F332F6F
:100E62008817342F8813080000300A128A11F726D7
:100E72000A128A118312031307108230F500DD3043
:100E8200F400F40B422FF50B422F472F30300A1299
:100E92008A1182260A128A111A30F500F830F400FB
:100EA200F40B512FF50B512F000030300A128A112A
:100EB20082260A128A114E30F500EB30F400F40B50
:100EC200602FF50B602F30300A128A1182260A1227
:100ED2008A1138300A128A1182260A128A110C30BB
:100EE2000A128A1182260A128A1101300A128A1102
:100EF20082260A128A1106300A128A1182260A12E0
:100F02008A1108000A128A1162260A128A118316AD
:100F1200031301178B150B16F1308600831203138E
:100F22008601C030831603138700831203138617CA
:100F3200831603138801051485140A128A113527B2
:100F42000A128A118312031387120A128A11712656
:100F52000A128A11F401F40A01300A128A11B62621
:100F62000A128A1101300A128A11D2260A128A1131
:100F720083120313AC01AD010A128A1159260A1217
:100F82008A11F700831203132C08203E840077088D
:100F9200831380000130AC070318AD0A0030AD079F
:100FA2002D08803AFF0080307F02031DDA2F0C30BB
:100FB2002C02031CDD2FDE2FBD2FF401F40A0230B8
:100FC2000A128A11B6260A128A1136300A128A11B8
:100FD200D2260A128A11B92F0A128A110028F801A0
:100FE200F901FA01FB01FC01FD0183120313AE01B9
:0E0FF200AF01B001B10183010A128A11832FF1
:02400E00723FFF
:00000001FF
