:020000040000FA
:060000000A128A110C280F
:10000800FE00030EF4000A08F5000A128A11E72B15
:100018000A128A110F280A128A1106250A128A1151
:10002800CC000A128A1107250A128A11CD00C601CE
:10003800C701C801C901CA01CB01F601F701F801DE
:10004800F90183010A128A11E32883120313AD010F
:10005800AE012B08031D312832283328E22829084D
:100068002A04031D3828392841283030AC002B08D1
:1000780084002C0883138000E228AA1F44284528FE
:100088006928FF30A000FF30A1002A08A300290832
:10009800A2000A128A117A240A128A1183120313FF
:1000A8002108AA002008A9002D30AC002B088400E4
:1000B8002C08831380000130AC002C08AB070130FA
:1000C800AD070318AE0A0030AE072A08B0002908A9
:1000D800AF003008803AFF0080307F02031D762889
:1000E80001302F02031879287A287B2895280A30AE
:1000F80083120313A0000030A1003008A3002F08CA
:10010800A2000A128A1177210A128A118312031394
:100118002108B0002008AF000130AC002C08AB0764
:100128006D28831203132B088400831380012A0887
:10013800B0002908AF003008803AFF0080307F0205
:10014800031DA82801302F020318AB28AC28AD28BE
:10015800E2280A3083120313A0000030A1003008FF
:10016800A3002F08A2000A128A1144220A128A1137
:10017800831203132008303EAC000130AB022B0879
:1001880084002C08831380000130AD070318AE0AE1
:100198000030AE070A30A0000030A1003008A300EC
:1001A8002F08A2000A128A1177210A128A118312D3
:1001B80003132108B0002008AF009F2808000A1286
:1001C8008A11F7240A128A118316031301170B16D2
:1001D800FD308600831203138601C0308316031393
:1001E8008700831203138617831603138717871B49
:1001F800FE280229831603130717052983160313FC
:10020800071388010A128A119F220A128A1183127F
:100218000313A40101300A128A11A1240A128A11B7
:100228000E3083120313A4008030A5000A128A112D
:10023800F3220A128A110A128A11E0210A128A117B
:1002480083120313861D29292A295729460847049A
:10025800031D2F2930293F2948084904031D352942
:1002680036293F290A128A11B4230A128A118312E5
:100278000313CA01CB0100304B02103003194A02A4
:10028800031C472948295729061A4B294C2957295D
:100298000A128A111A240A128A11013083120313CE
:1002A800C8000030C900061E5A295B291F29861973
:1002B8005E295F291F2946034704031D6429652910
:1002C80073290A128A111A240A128A11FF3083121A
:1002D8000313CC070318CD0AFF30CD071F291F29A8
:1002E8000A128A110C2883120313A601A11F7D2963
:1002F8007E298529A009A109A00A0319A10AA60136
:10030800A60AA31F882989299229A209A309A20A52
:100318000319A30A0130A4002408A606A701A8010E
:1003280020082104031999299A29D129A501A50A88
:10033800A82901300310A00DA10DFF3E031D9E2921
:100348000130A4002408A507A11FAB29AC299D29C9
:1003580001300310A70DA80DFF3E031DAD2921088C
:100368002302031DB92920082202031CBC29BD2928
:10037800C4292008A2022108031CA303A3022714EE
:1003880001300310A10CA00CFF3E031DC52901304C
:10039800A502031DD029D129AC2926080319D5297E
:1003A800D629DB29A709A809A70A0319A80A280832
:1003B800A1002708A000080083120313480349047A
:1003C800031DE729E829FB29A40102300A128A1132
:1003D800A1240A128A11183083120313A400803052
:1003E800A5000A128A11F3220A128A111D2AA401F1
:1003F80002300A128A11A1240A128A1183120313E5
:1004080046034704031D092A0A2A142A2030A40097
:100418008030A5000A128A11F3220A128A111D2AB5
:100428002830A4008030A5000A128A11F3220A128B
:100438008A11831203134D08AA004C08A900323010
:10044800B1003108AB000A128A1129200A128A1158
:100458000A3083120313B1003108A40002300A12D3
:100468008A11A1240A128A11323083120313A400BC
:100478000030A5000A128A11F3220A128A11080014
:1004880083120313A601A31F4A2A4B2A522AA20940
:10049800A309A20A0319A30AA601A60AA11F552A9D
:1004A800562A5B2AA009A109A00A0319A10A200853
:1004B80021040319602A612A902AA501A50A6F2A36
:1004C80001300310A00DA10DFF3E031D652A013068
:1004D800A4002408A507A11F722A732A642A2108E8
:1004E8002302031D792A20082202031C7C2A7D2A64
:1004F800832A2008A2022108031CA303A3020130B7
:100508000310A10CA00CFF3E031D842A0130A50294
:10051800031D8F2A902A732A26080319942A952ADC
:100528009A2AA209A309A20A0319A30A2308A10067
:100538002208A000080000300A128A1178230A1243
:100548008A11831203130710823083120313A50044
:10055800DD30A400A40BAE2AA50BAE2A30300A1257
:100568008A11DB240A128A111A3083120313A50098
:10057800F730A400A40BBE2AA50BBE2AC32A30302C
:100588000A128A11DB240A128A114E3083120313CD
:10059800A500EA30A400A40BCF2AA50BCF2A00009F
:1005A80030300A128A11DB240A128A1138300A12F2
:1005B8008A11DB240A128A110C300A128A11DB24F0
:1005C8000A128A1101300A128A11DB240A128A11CE
:1005D80006300A128A11DB240A128A1108008312D3
:1005E8000313A901AA011C2B29082407A700250821
:1005F800A6000318A60AA91F022BA6038312031339
:100608002608A8002808FF00270884000A128A1173
:1006180039230A128A110A128A11BF240A128A116E
:10062800013083120313A9070318AA0A0030AA0786
:1006380029082407A7002508A6000318A60AA91F49
:10064800262BA603831203132608A8002808FF00F8
:10065800270884000A128A1139230A128A11003ADB
:10066800031D372B382BF82A0800FF1B432B831355
:100678007F1883170008840A0319FF0A080003304B
:100688008A000408840A8207003431343134313452
:10069800313431343134313431343134313431342A
:1006A80031340034573465346C346C3463346F340B
:1006B8006D346534213400344C346F3463346B3416
:1006C80021342134213400344F34703465346E348D
:1006D800653464342134003443346C346F347334F7
:1006E800653464342134003483120313A000201CC1
:1006F8007E2B7F2B812B0814822B0810A01C852BA6
:10070800862B882B8814892B8810201D8C2B8D2BE9
:100718008F2B0815902B0811A01D932B942B962B2B
:100728008815972B8811201E9A2B9B2B9D2B08161A
:100738009E2B0812A01EA12BA22BA42B8816A52B3A
:100748008812201FA82BA92BAB2B0817AC2B08133A
:10075800A01FAF2BB02BB22B8817B32B8813080020
:1007680083120313A201A30186140B30831203130F
:10077800A1001F30A000A00BBF2BA10BBF2B831221
:10078800031386105E3083120313A100C230A00049
:10079800A00BCC2BA10BCC2B000001308312031330
:1007A800A2070318A30A0030A3070030230232303F
:1007B80003192202031CE12BE22BB82B0130C600DF
:1007C8000030C70008008B1CEA2BEB2BF72B0A1212
:1007D8008A114B240A128A1183120313C801C90112
:1007E800CA01CB018B10831203130C1CFC2BFD2BAD
:1007F800132C0130F8070318F90A0030F9073D30C7
:1008080078067904031D092C0A2C122C0130CA071A
:100818000318CB0A0030CB07F801F9010C10750852
:100828008A00740E8300FE0E7E0E090083120313E5
:10083800A201A3018614053083120313A100AB3073
:10084800A000A00B252CA10B252C831203138610C6
:10085800643083120313A1003630A000A00B322CA1
:10086800A10B322C0000013083120313A2070318D6
:10087800A30A0030A30700302302323003192202F2
:10088800031C472C482C1E2CC601C7010800F20186
:10089800F3018312031386140B30F1001F30F000AC
:1008A800F00B542CF10B542C592C83120313861083
:1008B8005E30F100C330F000F00B602CF10B602CBF
:1008C8000130F2070318F30A0030F307003073020F
:1008D800323003197202031C722C732C4D2C013018
:1008E80083120313C6000030C700080083120313E5
:1008F800A401A501201C812C822C882C2208A40785
:100908000318A50A2308A50701300310A20DA30D9B
:10091800FF3E031D892C01300310A10CA00CFF3EE3
:10092800031D902C20082104031D9B2C9C2C7E2C3D
:100938002508A1002408A000080083120313A500BD
:100948002503031DA82CA92CB12C2408803E0A12CB
:100958008A11DB240A128A11BE2C02302506031DD7
:10096800B62CB72CBE2C2408C03E0A128A11DB24F0
:100978000A128A11080083120313A300071423081C
:100988000A128A1178230A128A118312031307158F
:10099800153083120313A200C530A100A10BD22C7D
:1009A800A20BD22CD72C8312031307110800831231
:1009B8000313A300071023080A128A1178230A12C6
:1009C8008A118312031307151A3083120313A20026
:1009D800F730A100A10BEE2CA20BEE2CF32C831206
:1009E800031307110800831603130C14831203134F
:1009F8000C100B178B178E018F019010101290128C
:080A08001014080063340034EF
:02400E00723FFF
:00000001FF
