:020000040000FA
:060000000A128A110C280F
:10000800FE00030EFA000A08FB000A128A11272BC9
:100018000A128A110F28F001F101F201F301F4012B
:10002800F50183120313BF01C001C101C20183019D
:100038000A128A111F280A128A119A240A128A118E
:100048008316031301170B1601308600C030870092
:100058008312031386178316031388010514851466
:100068000A128A111D210A128A1183120313871298
:100078000A128A1189240A128A1183120313A4010D
:10008800A40A01300A128A1116240A128A110130B0
:1000980083120313A4008030A5000A128A1171216B
:1000A8000A128A110A128A118A230A128A118312E1
:1000B80003132908BA002808B9000A128A115A231A
:1000C8000A128A11831203132908BC002808BB00EE
:1000D8000A128A1145220A128A1100308312031368
:1000E8003A02973003193902031C7B287C28F2282E
:1000F8008715BD01BE010A128A11A9240A128A11A4
:1001080083120313AC003D082D3E84002C08831392
:1001180080000130BD070318BE0A0030BE073E0844
:10012800803AFF0080307F02031D9C280C303D027E
:10013800031C9F28A0287F2883120313A401A40A64
:1001480001300A128A1116240A128A112D308312DC
:100158000313A4000030A5000A128A1171210A12A3
:100168008A11123083120313AC002C08A7002D301B
:100178000A128A1134240A128A11831203132703DC
:100188002804031DC828C928F328C101C2013F0853
:100198004004031DD028D128F3280A128A11F3221B
:1001A8000A128A11013083120313BF000030C00005
:1001B80000304202063003194102031CE428E528F6
:1001C800F02800303C02963003193B020318ED2852
:1001D800EE28F0288716F3288712F32887110030B5
:1001E8003C02973003193B02031CFB28FC28172903
:1001F800071600303A029630031939020318052908
:100208000629562887123F034004031D0C290D298F
:1002180019290A128A11BA230A128A11831203139E
:10022800BF01C00156280712562856280A128A11FB
:100238000C2800300A128A1182220A128A118312AB
:1002480003130710213083120313A5007530A4008F
:10025800A40B2C29A50B2C29312930300A128A111C
:100268006D240A128A11073083120313A5007C300B
:10027800A400A40B3D29A50B3D29000030300A122B
:100288008A116D240A128A11143083120313A500EF
:100298007930A400A40B4E29A50B4E2930300A1240
:1002A8008A116D240A128A1138300A128A116D24B3
:1002B8000A128A110C300A128A116D240A128A1144
:1002C80001300A128A116D240A128A1106300A12A4
:1002D8008A116D240A128A11080083120313A901D6
:1002E800AA019A2929082407A7002508A6000318A7
:1002F800A60AA91F8029A603831203132608A800AB
:100308002808FF00270884000A128A1100220A120E
:100318008A110A128A1151240A128A110130831291
:100328000313A9070318AA0A0030AA0729082407F3
:10033800A7002508A6000318A60AA91FA429A60332
:10034800831203132608A8002808FF002708840042
:100358000A128A1100220A128A11003A031DB529CD
:10036800B6297629080083120313A601A7012008DD
:1003780021040319C029C129F829A501A50ACF29F3
:1003880001300310A00DA10DFF3E031DC52901304A
:10039800A4002408A507A11FD229D329C429013004
:1003A8000310A60DA70DFF3E031DD4292108230223
:1003B800031DE02920082202031CE329E429EB2974
:1003C8002008A2022108031CA303A302261401305B
:1003D8000310A10CA00CFF3E031DEC290130A5025F
:1003E800031DF729F829D3292708A1002608A0000A
:0203F8000800FB
:10040000FF1B0A2A83137F1883170008840A031925
:10041000FF0A080002308A000408840A82070034B8
:100420003C343C34533448344F34573420345534FE
:100430005234203443344134523444343E343E3414
:1004400000343134313431343134313431343134B5
:100450003134313431343134313400345334743440
:1004600061347434753473343A34203400344F3486
:10047000703465346E3465346434003443346C3421
:100480006F34733465346434003483120313A4016D
:10049000A40A02300A128A1116240A128A111F3085
:1004A00083120313A4008030A5000A128A1171215F
:1004B0000A128A11093083120313AB002B08A4001F
:1004C00002300A128A1116240A128A1183120313A7
:1004D0003F034004031D6D2A6E2A782A2830A400A9
:1004E0008030A5000A128A1171210A128A11812A0C
:1004F0002F30A4008030A5000A128A1171210A123F
:100500008A11080083120313A000201C882A892A5C
:100510008B2A08148C2A0810A01C8F2A902A922A51
:100520008814932A8810201D962A972A992A08153C
:100530009A2A0811A01D9D2A9E2AA02A8815A12A60
:100540008811201EA42AA52AA72A0816A82A08125C
:10055000A01EAB2AAC2AAE2A8816AF2A8812201F0A
:10056000B22AB32AB52A0817B62A0813A01FB92A37
:10057000BA2ABC2A8817BD2A8813080083120313DD
:10058000A600CA2A0130A2002208A6070130A20054
:100590002208A0072008840083130008A200260870
:1005A00084000A128A110A220A128A11A300220860
:1005B0002302A4002408A5002508031DE02AE12A3F
:1005C000ED2A260884000A128A110A220A128A11C8
:1005D000003A031DEC2AED2AC22A2508A000A10139
:1005E000A01BA103080083120313A201A301861418
:1005F000D53083120313A000FD2AFE2AA00BFC2A8B
:10060000012B022B032B8312031386101930831244
:100610000313A1000430A000A00B0C2BA10B0C2B8A
:100620000000013083120313A2070318A30A00304D
:10063000A30700302302323003192202031C212BAE
:10064000222BF72A0130BF000030C00008008B1CAD
:100650002A2B2B2B372B0A128A11E9230A128A1113
:10066000013083120313BF000030C0008B108312CF
:1006700003130C1C3C2B3D2B532B0130F4070318A8
:10068000F50A0030F5070F3074067504031D492B79
:100690004A2B522B0130C1070318C20A0030C2078F
:1006A000F401F5010C107B088A007A0E8300FE0E1F
:1006B0007E0E0900C030831603139F008D30831215
:1006C00003139F001F19652B662B622B1E08AB00BE
:1006D000831603131E0883120313AA000330A0001D
:1006E0000030A1002B08A3002A08A2000A128A11D8
:1006F000B7210A128A11831203132008FF3EAA00B1
:1007000021080318013EFF3EAB002B08A9002A0870
:10071000A8000800C030831603139F0085308312A1
:1007200003139F001F19952B962B922B1E08AB00CD
:10073000831603131E0883120313AA000330A000BC
:100740000030A1002B08A3002A08A2000A128A1177
:10075000B7210A128A11831203132008FF3EAA0050
:1007600021080318013EFF3EAB002B08A9002A0810
:10077000A800080083120313A201A30186149F306E
:1007800083120313A000C42BA00BC32BC72B83120F
:1007900003138610193083120313A100ED30A0005B
:1007A000A00BD02BA10BD02BD52B01308312031320
:1007B000A2070318A30A0030A30700302302323037
:1007C00003192202031CE52BE62BBE2BBF01C0013F
:1007D0000800F801F901831203138614D630F600DD
:1007E000F12BF22BF60BF02B000083120313861073
:1007F0001930F7000530F600F60BFC2BF70BFC2B3D
:100800000130F8070318F90A0030F90700307902BF
:10081000323003197802031C0E2C0F2CEB2B013005
:1008200083120313BF000030C000080083120313BB
:10083000A5002503031D1D2C1E2C262C2408803EFC
:100840000A128A116D240A128A11332C02302506ED
:10085000031D2B2C2C2C332C2408C03E0A128A1189
:100860006D240A128A11080083120313AA002A08B1
:10087000A9002908A00027080A128A11BE220A121C
:100880008A118312031320082104031D482C492CCC
:100890004E2C0130A7000030A800502CA701A80161
:1008A000080083120313A300071423080A128A11F5
:1008B00082220A128A11831203130715063083124B
:1008C0000313A2002F30A100A10B642CA20B642CF7
:1008D000692C831203130711080083120313A3006A
:1008E000071023080A128A1182220A128A1183121F
:1008F00003130715073083120313A2007C30A100F5
:10090000A10B802CA20B802C000083120313071173
:1009100008002030831603139800903083120313CD
:1009200098001130831603139900831203138C125D
:100930000C120800831603130C14831203130C10FB
:100940000B178B178E018F0190101012901210143C
:100950000800831203138C1EAE2CAF2CA92C8C1212
:040960001A08080069
:00000001FF
