:020000040000FA
:060000000A128A110C280F
:10000800FE00030EF4000A08F5000A128A11732C88
:100018000A128A110F280A128A11C2250A128A1195
:10002800CF000A128A11C3250A128A11D000C7010B
:10003800C801C901CA01CB01CC01CD01CE01F6012D
:10004800F701F801F90183010A128A112B280A1213
:100058008A11B3250A128A118316031301170B1686
:10006800F9308600831203138601C0308316031308
:100078008700831203138617831603138717871BBA
:1000880046284A288316031307174D288316031397
:10009800071388010A128A11DC220A128A118312B4
:1000A8000313A40101300A128A115D250A128A116C
:1000B8000E3083120313A4008030A5000A128A119F
:1000C80078230A128A110A128A11D7240A128A116D
:1000D800831203132908CE002808CD000A128A11BA
:1000E8001D220A128A110030831203134E02973020
:1000F80003194D02031C81288228AF2847084804A9
:10010800031D87288828972849084A04031D8D2835
:100118008E2897280A128A1140240A128A118312FB
:100128000313CB01CC0100304C02103003194B02F1
:10013800031C9F28A028AF28061AA328A428AF28A4
:100148000A128A11A6240A128A1101308312031393
:10015800C9000030CA00061EB228B328CF280030D4
:100168004E02963003194D020318BB28BC28CF282D
:1001780047034804031DC128C228CF280A128A1140
:10018800A6240A128A11FF3083120313CF0703181B
:10019800D00AFF30D0070B30C6004608A400013053
:1001A8000A128A115D250A128A1183120313861E08
:1001B800DE28DF28EA2806152F30A4008030A500A5
:1001C8000A128A1178230A128A1167283430A40087
:1001D8008030A5000A128A1178230A128A11831224
:1001E8000313061167280A128A110C2883120313B5
:1001F800AD01AE012B08031D022903290429B329E7
:1002080029082A04031D09290A2912293030AC00BB
:100218002B0884002C0883138000B329AA1F1529F2
:1002280016293A29FF30A000FF30A1002A08A300B0
:100238002908A2000A128A1136250A128A11831285
:1002480003132108AA002008A9002D30AC002B08B0
:1002580084002C08831380000130AC002C08AB0705
:100268000130AD070318AE0A0030AE072A08B00007
:100278002908AF003008803AFF0080307F02031D54
:10028800472901302F0203184A294B294C2966298E
:100298000A3083120313A0000030A1003008A30025
:1002A8002F08A2000A128A11B4210A128A11831295
:1002B80003132108B0002008AF000130AC002C085F
:1002C800AB073E29831203132B0884008313800194
:1002D8002A08B0002908AF003008803AFF008030B3
:1002E8007F02031D792901302F0203187C297D29FB
:1002F8007E29B3290A3083120313A0000030A1001D
:100308003008A3002F08A2000A128A1181220A12BB
:100318008A11831203132008303EAC000130AB026F
:100328002B0884002C08831380000130AD070318C4
:10033800AE0A0030AE070A30A0000030A100300835
:10034800A3002F08A2000A128A11B4210A128A11E6
:10035800831203132108B0002008AF007029080099
:1003680083120313A601A11FBA29BB29C229A00918
:10037800A109A00A0319A10AA601A60AA31FC52953
:10038800C629CF29A209A309A20A0319A30A013081
:10039800A4002408A606A701A8012008210403191F
:1003A800D629D7290E2AA501A50AE5290130031067
:1003B800A00DA10DFF3E031DDB290130A400240878
:1003C800A507A11FE829E929DA2901300310A70D9B
:1003D800A80DFF3E031DEA2921082302031DF62963
:1003E80020082202031CF929FA29012A2008A2025E
:1003F8002108031CA303A302271401300310A10C36
:10040800A00CFF3E031D022A0130A502031D0D2A80
:100418000E2AE92926080319122A132A182AA709D5
:10042800A809A70A0319A80A2808A1002708A000F4
:1004380008008312031349034A04031D242A252AAA
:10044800382AA40102300A128A115D250A128A117B
:10045800173083120313A4008030A5000A128A11F2
:1004680078230A128A115A2AA40102300A128A1120
:100478005D250A128A118312031347034804031DDA
:10048800462A472A512A1F30A4008030A5000A12A4
:100498008A1178230A128A115A2A2730A400803038
:1004A800A5000A128A1178230A128A1183120313EB
:1004B8005008AA004F08A9003230B1003108AB003B
:1004C8000A128A11FA200A128A110A3083120313B7
:1004D800B1003108A40002300A128A115D250A12FF
:1004E8008A11323083120313A4000030A5000A12C7
:1004F8008A1178230A128A11080083120313A601AD
:10050800A31F872A882A8F2AA209A309A20A0319E6
:10051800A30AA601A60AA11F922A932A982AA0092B
:10052800A109A00A0319A10A2008210403199D2A78
:100538009E2ACD2AA501A50AAC2A01300310A00DD8
:10054800A10DFF3E031DA22A0130A4002408A5071F
:10055800A11FAF2AB02AA12A21082302031DB62A07
:1005680020082202031CB92ABA2AC02A2008A2029B
:100578002108031CA303A30201300310A10CA00C43
:10058800FF3E031DC12A0130A502031DCC2ACD2A36
:10059800B02A26080319D12AD22AD72AA209A309E0
:1005A800A20A0319A30A2308A1002208A000080030
:1005B80000300A128A1104240A128A1183120313C2
:1005C8000710823083120313A500DD30A400A40BAA
:1005D800EB2AA50BEB2A30300A128A1197250A124A
:1005E8008A111A3083120313A500F730A400A40B54
:1005F800FB2AA50BFB2A002B30300A128A119725FB
:100608000A128A114E3083120313A500EA30A4009F
:10061800A40B0C2BA50B0C2B000030300A128A11EE
:1006280097250A128A1138300A128A1197250A1258
:100638008A110C300A128A1197250A128A11013080
:100648000A128A1197250A128A1106300A128A118B
:1006580097250A128A110800FF1B3A2B83137F186B
:1006680083170008840A0319FF0A080003308A0068
:100678000408840A82070034313431343134313487
:10068800313431343134313431343134313431343A
:100698000034573465346C3463346F346D346534E6
:1006A800213400344C346F3463346B3421342134B6
:1006B800213400344F34703465346E346534643416
:1006C8002134003443346C346F3473346534643407
:1006D800213400345334613466346534003446348C
:1006E800693472346534003483120313A901AA01F2
:1006F800A12B29082407A7002508A6000318A60A85
:10070800A91F872BA603831203132608A80028080D
:10071800FF00270884000A128A1130230A128A115E
:100728000A128A117B250A128A11013083120313D7
:10073800A9070318AA0A0030AA0729082407A7004E
:100748002508A6000318A60AA91FAB2BA603831227
:1007580003132608A8002808FF00270884000A12A7
:100768008A1130230A128A11003A031DBC2BBD2BB3
:100778007D2B080083120313A601A701200821047A
:100788000319C72BC82BFF2BA501A50AD62B0130AF
:100798000310A00DA10DFF3E031DCC2B0130A400BA
:1007A8002408A507A11FD92BDA2BCB2B0130031066
:1007B800A60DA70DFF3E031DDB2B21082302031DF9
:1007C800E72B20082202031CEA2BEB2BF22B200834
:1007D800A2022108031CA303A3022614013003105C
:1007E800A10CA00CFF3E031DF32B0130A502031D35
:1007F800FE2BFF2BDA2B2708A1002608A0000800F3
:1008080083120313A000201C0A2C0B2C0D2C081497
:100818000E2C0810A01C112C122C142C8814152C2A
:100828008810201D182C192C1B2C08151C2C08119D
:10083800A01D1F2C202C222C8815232C8811201E4B
:10084800262C272C292C08162A2C0812A01E2D2C01
:100858002E2C302C8816312C8812201F342C352C45
:10086800372C0817382C0813A01F3B2C3C2C3E2C87
:1008780088173F2C8813080083120313A201A301D1
:1008880086140B3083120313A1001F30A000A00BA5
:100898004B2CA10B4B2C8312031386105E30831252
:1008A8000313A100C230A000A00B582CA10B582C98
:1008B8000000013083120313A2070318A30A0030B3
:1008C800A30700302302323003192202031C6D2CC7
:1008D8006E2C442C0130C7000030C80008008B1C67
:1008E800762C772C832C0A128A1107250A128A1172
:1008F80083120313C901CA01CB01CC018B108312E7
:1009080003130C1C882C892C9F2C0130F807031822
:10091800F90A0030F9073D3078067904031D952C53
:10092800962C9E2C0130CB070318CC0A0030CC073C
:10093800F801F9010C1075088A00740E8300FE0E88
:100948007E0E090083120313A201A3018614053049
:1009580083120313A100AB30A000A00BB12CA10B94
:10096800B12C831203138610643083120313A10081
:100978003630A000A00BBE2CA10BBE2C000001300D
:1009880083120313A2070318A30A0030A307003039
:100998002302323003192202031CD32CD42CAA2C94
:1009A800C701C8010800C030831603139F008530B3
:1009B800831203139F001F19E22CE32CDF2C1E085F
:1009C800AB00831603131E0883120313AA00033017
:1009D800A0000030A1002B08A3002A08A2000A12D8
:1009E8008A11BE230A128A11831203132008FF3EBC
:1009F800AA0021080318013EFF3EAB002B08A900FE
:100A08002A08A8000800F201F301831203138614D0
:100A18000B30F1001F30F000F00B102DF10B102DF2
:100A2800152D8312031386105E30F100C330F000D9
:100A3800F00B1C2DF10B1C2D0130F2070318F30AE3
:100A48000030F30700307302323003197202031CBE
:100A58002E2D2F2D092D013083120313C7000030CE
:100A6800C800080083120313A401A501201C3D2D12
:100A78003E2D442D2208A4070318A50A2308A5071C
:100A880001300310A20DA30DFF3E031D452D0130BB
:100A98000310A10CA00CFF3E031D4C2D20082104BF
:100AA800031D572D582D3A2D2508A1002408A00014
:100AB800080083120313A5002503031D642D652D6B
:100AC8006D2D2408803E0A128A1197250A128A1170
:100AD8007A2D02302506031D722D732D7A2D2408D8
:100AE800C03E0A128A1197250A128A110800831239
:100AF8000313A300071423080A128A1104240A12F4
:100B08008A11831203130715153083120313A200E9
:100B1800C530A100A10B8E2DA20B8E2D932D831213
:100B280003130711080083120313A30007102308F7
:100B38000A128A1104240A128A1183120313071550
:100B48001A3083120313A200F730A100A10BAA2DBB
:100B5800A20BAA2DAF2D83120313071108008316C9
:100B680003130C14831203130C100B178B178E012D
:100B78008F01901010129012101408006334003482
:02400E00723FFF
:00000001FF
